:0200000407FCF7
:100000001086FC071572FC072972FC074372FC0777
:100010001172FC071172FC071172FC071172FC07C8
:100020000000000000000000000000001172FC074A
:1000300000000000000000001172FC071172FC07B4
:10004000C52FFC075530FC07A526F0074D2AFC07F5
:10005000E126FC071172FC076D1FFC071172FC07FB
:100060005531FC071172FC075D18FC076718FC0787
:100070007118FC077B18FC078518FC071172FC0738
:10008000ED18FC071172FC071172FC071172FC07D6
:100090001172FC071172FC071172FC071172FC0748
:0800A000000000008E070E00B5
:0200000407FCF7
:100110000348854607F02EF8004800477102FC07A7
:100120001086FC077CB501A80F2101706C460025E4
:100130002570012631462A462B4602F0A9F80223F3
:10014000204631462A4602F0DDF800F087F8217893
:100150003339484248417CBD80B52020572100F00A
:1001600005F82320002100F001F880BD7CB56C4625
:10017000217001A90870012500260846294632464B
:10018000334602F085F8022320462946324602F023
:100190007FF800F063F87CBDF0B585B001920D46A4
:1001A000064604A8A8210170012100242246234606
:1001B00002F06EF802AF062102233846224602F012
:1001C000A1F800F04BF8387879780902081800B2E5
:1001D00080093080B878F9780902081800B28009DF
:1001E0002880387979790902081800B280090199C4
:1001F000088005B0F0BDC046FEB5044602A801ADBA
:100200006A462946FFF7C8FF13488188009A828012
:1002100043882D8845800688029F0780B81B06B258
:10022000F6137040801B06B20120A64210DCEB1AC8
:100230001DB2ED136B405B1B1BB2A34208DC501ACE
:1002400001B2C9134840401A00B2A04201DC0020AC
:10025000FEBD0120FEBDC046308FFC07034801886B
:100260008906FCD40188C907FCD17047701300507F
:1002700086B0734873490818734940188008401EB7
:10028000019000F099FC012630020290052005073C
:10029000A04F03962889000621D56C480068000409
:1002A0001DD49B480088C00719D15DF7A6F800242B
:1002B000204600F0E1FA6648007804280BD10120BE
:1002C00000F0DAFA059405A804214DF737FC002860
:1002D00001D000F04BFB05F0EDF80028DAD105F075
:1002E00009F90028D6D172B602F06EFF01463878BF
:1002F000012801D0032000E00220042900D0084694
:10030000811E02292BD2298A04273943298205F02C
:1003100013F90446022826D0032C43D1C5490868A6
:1003200038430860C2490888B0430880688AB843E7
:10033000688202F025FA688A1021014369820198D7
:1003400044490860EFF3108086F3108829888022E2
:1003500091432980002813D086F3108813E00128E8
:1003600069D130BF67E0B349086838430860B049D5
:100370000888B0430880688A1021884368820FE0AB
:10038000002080F31088688D0299084208D002F09E
:10039000F1F90B2001F05CF8A849C88D3043C885FD
:1003A000002028830497688D0299084206D1A34A49
:1003B0001088402101432020814311809C49088BF3
:1003C000402630432027B8430883FE200440022CF7
:1003D00010D1A88C039CA043A8840D2006F0B2FE87
:1003E0006889204302218843688168894006FCD5DA
:1003F00032206880A88AC00602D508208649088075
:1004000030BFA88AC00602D50820834948808B4A9D
:1004100010883843F14308401080854A108B3843D8
:100420000840108304F0E2FD82490868049A904372
:100430000860039EC14F62B6C8200749088029E7BB
:10044000F87700001001FC07030004F830000040BA
:10045000B190FC072000F40700310050704770474E
:10046000B0B50C460025202D04D042F748FA60555F
:100470006D1CF8E70020B0BD80B560F77DFD80BD44
:10048000F8B56946C870020A8A70020C4A70000EFC
:100490000870084660F758FD8FBD70477047704779
:1004A00003480188034A11408918091D01807047DB
:1004B00012000050FC7F000006480178002902D09D
:1004C00080214170704704480021C17003480170C9
:1004D0007047C046378FFC0754BAFC07B4BAFC0714
:1004E0000A490A78002A03D000280AD17E2009E0B0
:1004F000074A0121D170002800D00221054801706F
:1005000070477D20C04348707047C046378FFC0756
:1005100054BAFC07B4BAFC07F0B585B000AC0EC401
:100520003D49082204920A8072B63C4CA1890425F8
:100530002943A181A18880229143A180A2884021E2
:1005400003910A43A280364A15802288354B134016
:1005500023800022D243344B1A60228AD206FCD474
:10056000E289324B1340E3810123DA43304FBE88E6
:100570001640BE802F4E316829433160A18A032680
:10058000B1430143A182A08A0C21884300998900CC
:100590000143A182A08A30218843019909010143C6
:1005A000A182A0891843A081388810400299401880
:1005B0003880B88A204901400720C0020818B88254
:1005C0009803B98A0143B982E18C1C480288C905A5
:1005D00006D460210A430280B88A3043039C08E0B5
:1005E00020210A43039CA2430280B98A02200843C7
:1005F0009843B882B88A04990843B882B88AA84355
:10060000B882388B204320218843388300BF00BF45
:1006100000BF30BF05B0F0BD0033005004000050F3
:1006200000020050FFF7000080E200E07FFE0000C3
:100630000C03005010ED00E0FFC30000520000501A
:1006400002280FD0012807D0002811D110480178C6
:10065000002917D080210AE00D480178002908D030
:10066000812104E00A480178002905D082214170E7
:1006700070470848012107E006480121C17006487B
:10068000022103E003480021C17003480170704754
:10069000378FFC0754BAFC07B4BAFC07044801784A
:1006A0004A1E50425041022900D108467047C046B8
:1006B000B4BAFC0710488178002904D0491E817023
:1006C000090600D070474178002904D0002242700A
:1006D0000322114003E001780029F3D0491E0022D3
:1006E0000270481EC0B20128ECD804480122C27032
:1006F000034801707047C046378FFC0754BAFC07A7
:10070000B4BAFC070B488178491C81700178002934
:1007100000D0704708490023CB7008490A780B7055
:10072000012A01D0012100E00221022A00D1032187
:1007300001707047378FFC0754BAFC07B4BAFC0746
:100740000148012101707047368FFC0701480021E4
:1007500001707047368FFC07014800787047C0462B
:10076000368FFC0710B5EFF31082012080F310885C
:1007700009490B888021194003D1084B1C88044388
:100780001C80002A02D080F3108802E0002080F351
:1007900010884842484110BD0800005008330050FE
:1007A000014800787047C046B190FC07B0B52548B5
:1007B0000188302291430180018880220A4302800F
:1007C0000188082211430180038B01218B4303839D
:1007D00043881824A3434380048840231C43048097
:1007E00004890425AC4304818489A407FCD5C48B07
:1007F000154D25400B2424022C19C483C48B0C43B3
:10080000C48344881443102294434480428B8A4317
:1008100042830E4AAA24146002889A430280080286
:100820008A071368834313603F204002084A136815
:10083000834348031818106048051168014311608C
:10084000B0BDC04608000050FFF00000448FFC0718
:1008500000020040064948800888032202430A80BB
:100860000888042202430A8002480121017070476F
:1008700000160050708FFC07B0B5134D2978002981
:1008800021D01249002803D008884007FCD402E098
:100890000888400717D400232B70C8888988000473
:1008A00044181F2040064921224662F7D9FD6422E0
:1008B0004243120C064B63439B0B5B1C5B08AA6113
:1008C000EB6128626962B0BD708FFC0700160050B2
:1008D00011110100F8B5642013490E5A134FBC6979
:1008E000304660431249401812495EF78BFB0546BB
:1008F000B8803C3666430E4830180E495EF782FBDE
:10090000021D0D49A818C01D0A6048600B4A1278E4
:10091000022A01D11130486000F098F808494018C7
:1009200080B25CF7FBFDF8BDA08FFC07708FFC0761
:1009300020A1070040420F00807EFC07B4BAFC07EC
:10094000E204000080B5044989694143034808185E
:1009500003495EF757FB80BD708FFC0720A107009D
:1009600040420F0080B500F071F880BDF0B587B04F
:1009700028480121016001680029FCD1264800684F
:10098000264DA968884201D20021A960411ACA09EE
:1009900023490978182A33D9C90733D1A860214ED1
:1009A000308803907788B0880290F088019000200A
:1009B00005901D48049004A801F00AF901F080FB9D
:1009C00001F0A4FB01F036FB044601F089FB6878D6
:1009D0007F280CD0201A41B2C9114840401A40B2B9
:1009E000052805DBE868401CE86002F043FE6C70F7
:1009F00077800298B0800198F0800398308006E0FC
:100A0000C80704D0E868401CE86002F033FE07B075
:100A1000F0BDC046FC0000401C000040708FFC0789
:100A2000C490FC07001500500104000080B5044983
:100A3000896941430348081803495EF7E3FA80BD1A
:100A4000708FFC0720A1070040420F0080B50246CE
:100A5000C00B09D00748C06900210B465EF7FCFABD
:100A60008905800A401880BD0248C0694243900A47
:100A700080BDC046708FFC070A49887801280ED1D6
:100A8000094A012010601368002BFCD1074A126844
:100A9000074B1B689A4201D30020887070470020E2
:100AA0007047C046708FFC07FC0000401C000040EF
:100AB0000479FC070020704780B5064800210160DA
:100AC000FFF708FF0120C00703490A6882430A6054
:100AD00080BDC046A8B9FC0730000040002805D002
:100AE0000748C18880694843C00B01E00448C088BA
:100AF0003F210840034A13888B43C0181080704779
:100B0000708FFC07000100507047C04670B5044666
:100B100010480480104D688B0126B04368830D2077
:100B200006F010FB2888304302218843288028885B
:100B30004006FCD52846083804807D20C00006F019
:100B400001FB288803218843288028880006FCD5DB
:100B500070BDC046408FFC070A0000500B4801885A
:100B600080220A434021C9430A400280428BFF236E
:100B70009A434283428C04231343182293434384B1
:100B8000428CA02313430B4043847047160000504F
:100B900006480188064A0A400721C9025118018007
:100BA0000448018808220A4302807047200300504D
:100BB000FFC3000052000050F0B585B06F48C82157
:100BC00002910180002545806D480826068000F0CE
:100BD000D5FC6C4F388804AC20802088C046C046C5
:100BE00020880422D14308420095039201D03D8021
:100BF00003E0B88901218843B881FFF7C9FF624843
:100C0000C28D06218A43C2850124A203BB8B1343F4
:100C1000BB8302885D4B1340038042880A43B24382
:100C2000428005210D076A8D594BFF33C18D194054
:100C3000D20501961AD40F22120303235B02194333
:100C4000C185C18D1143C185B98BB143B983B98BBE
:100C500004229143B98341884F4A0A404280C18DA2
:100C60002143C185698D4907FCD516E0A2021143D5
:100C7000C185C18D474A0A40E1035118C185B98B2E
:100C80003143B983B98B039A9143B983C18DA14391
:100C9000C185B98B40229143B983B98B03220A43A2
:100CA000BA830188202211434023DB43194001808D
:100CB0003A488470388C104318403884FFF74EFF50
:100CC0003748039E0680A88836490140A980200441
:100CD0003549086001F054FD022001F09FFD334FBB
:100CE0003868C1B20C20AA29014600D031462A88B2
:100CF000824388182880C046C046284D28461030B8
:100D000000F048FB00F090F96620C649085AFFF74A
:100D1000FDFE7F206870B8692549086001F054FE27
:100D200000F04AF804F062F9FFF740FD02F0E2F843
:100D30008148006841F78EFA1E4800990171C17020
:100D40002002A1070A6802430A601E20FFF782FD05
:100D50002046FFF791FDFFF7AFFB03F031FB04F0F6
:100D60009BF9FFF7A9FE052006F098F903480299C0
:100D7000018003480199018005B0F0BD00310050A9
:100D8000023300500403005052000050FFBF000027
:100D900000F0FFFFFF0F0000FFF90000708FFC075D
:100DA00000020050FFF7000080E200E0D07FF8076B
:100DB000007FFC0754BAFC0770B530480068304922
:100DC00088424FD1314C324920465EF7AEF90725B3
:100DD000290230485EF7A9F905F06EFF2E482F4929
:100DE00001602F482F4930225EF786F92E480026F1
:100DF000C671867146710671C670867046703F2155
:100E000001702A482AA140225EF776F93848067018
:100E100038483949016039483949016039483A4907
:100E200001603A480A210170394806703948322178
:100E300001703948052101603848012202603848B4
:100E400001603848062101603748056037480821AD
:100E50000160832040003649086036490860364802
:100E6000046070BD00200749074A05235B029842D1
:100E7000A8D843588350001DF7E7C0469CB8FC072C
:100E80006587341200B0FC07E891FC0700A0FC075E
:100E9000AC14000000B9FC0760BAFC076075FC07E1
:100EA00000BAFC077CFCF107DAB9FC07B0BCFC0710
:100EB0002000800000C00000000084000000282204
:100EC000000000000000040000F7FFFF7F000000AA
:100ED00030F0FF0F000000000004000000000000E0
:100EE0000000000000000000000000000000000002
:100EF000FDB9FC0750B9FC07603FF20754B9FC0785
:100F0000C476FC0758B9FC07B875FC07B0B9FC07F4
:100F1000B1B9FC07D9B9FC075CB9FC0760B9FC079B
:100F200064B9FC0768B9FC076CB9FC0770B9FC0729
:100F300048B9FC0744B9FC074CB9FC070103401849
:100F40000B494018C10C41400A4848404101401833
:100F5000094941184002094A80184840C100401818
:100F600007494018010C4140064848407047C046B8
:100F7000165DD57E3CC261C71DCCF8E90062CFACDE
:100F8000C54670FD094F5AB510B5094800210180CA
:100F9000084809A118225EF7AFF80DA00F491CC838
:100FA0001CC105F082FE0E480E49016010BDC0460E
:100FB000988FFC0720000840F99DF0070000000012
:100FC000E3A1F107000000004FA4F10700000000BA
:100FD000D966FC07076AFC07176BFC07C000FC0713
:100FE000000008400700100070B51E2816D10C48FC
:100FF000101849080B4A0B0610D0046843680830E3
:10100000002635460835382D06D096193669A64291
:101010002E46F7D15419E360491EECE770BDC04677
:10102000D47EF807A08FFC07F0B589B06821A348EB
:1010300000240291445201200390C046C046A04FB4
:10104000381F00689F49884200D0FFE001940F20BC
:1010500006070420049605463918081F3A46EC3264
:10106000904200D3F4E000680890089B33400922C6
:1010700014070898A34243D1089B1C0AE3B20593C6
:10108000C0B2431E162B00D9BEE09B003E4602A70D
:10109000FB5837469F46C0461112FC071112FC0749
:1010A0000912FC071112FC070912FC07F510FC07D6
:1010B000A511FC070912FC070912FC070912FC071D
:1010C0000912FC070912FC070912FC070912FC07A8
:1010D0000912FC070912FC07C511FC077711FC0770
:1010E000EB11FC077111FC070912FC070112FC0748
:1010F0009B11FC07714A029FD05DC000101857E099
:10110000800F0FD00898724988420BD828460830C3
:101110006E4B19462631089A8A4221D1E9596E4A06
:10112000518098E70898304007210907884203D189
:101130000020C046C04611E0089830400399C90716
:1011400088420BD00898304005214907884205D0D5
:101150000898304003214907884268D1281D7AE762
:10116000089999425AD1E9596622544B995272E72B
:10117000E859622113E0E8594243E959090C521A2F
:1011800012B2D2085A234D4CE252081A81084E4A34
:1011900011400818401C582125E0E8596421474AAD
:1011A000505235E06927454AD05DC0001018103014
:1011B000059A92005DF7A0FF4049C85D0019C85527
:1011C000374625E0E8594243E959090C521A12B250
:1011D000D2085623394CE252081A81083A4A114083
:1011E0000818401C5421605212E0019CA00006AA7D
:1011F0001018059EB2005DF77FFF3419019407E0D7
:10120000E8592E49086503E005992A46FFF7ECFEE8
:10121000059880002818001D049E1CE719462231FD
:10122000089A8A4208D1E9592B4A918013E7089815
:10123000401C28460CD00EE719461E31089A8A42F7
:1012400000D008E7E959244AD18004E7FF2031E0C3
:101250005C200699194C21520299605C4008605448
:101260006920215C490821540920079948430A0C48
:10127000801A00B2C0086023E052501A8108124A56
:1012800011400818401C5E2160526420215A002938
:1012900002D17D21C90021526621625A0020002A14
:1012A00008D10C4A1268D2B2AA2A01D06E2200E0FC
:1012B0008022625240B209B0F0BDC046A08FFC0748
:1012C000D47EF807A5A5A5A5FF3F000002000050A9
:1012D0004C420050D07FF807A000FC07F8B5682406
:1012E000134D295D0026134F8E4220D22A68BA4240
:1012F00018D16868C001400C3A4613D002F0E2FDF4
:101300000B49095D2A680A280CD3032000026B6888
:1013100018401B049B0E18181060E888064A1040FD
:10132000064A00E0686810600835761CDCE7F8BD06
:10133000A08FFC074C100040FF0100000C7FFC0751
:10134000F8B569240F4E315D103600270E4D8F42DF
:1013500016D23268AA420ED102F0B4FD0949095DE5
:1013600032680A2807D373680848034008480068B1
:101370004004184300E07068106008367F1CE6E700
:10138000F8BDC046A08FFC0738300040FFFF01FCCD
:101390000C7FFC0780B5024906225DF7ADFE80BDDB
:1013A000D47FF80705200007018830220A43028015
:1013B000018803220A430280704705200007018844
:1013C00030229143018001880322914301807047BC
:1013D00003490A88034B13400002184308807047F2
:1013E00038300050FFFC000006490A88064B1340C5
:1013F0000B8006490A8808239A43C007000F10187B
:101400000880704752000050FFEF0000200300509A
:1014100006490A88064B13400B8006490A880423B4
:101420009A43C007400F10180880704752000050C0
:10143000FFFD00002003005004480188890918229C
:101440000A4000888004400F801870475400005004
:1014500008490A88084B1340F822024092011A43B7
:101460000A800A88054B13404007800C1818088032
:101470007047C04654000050FFF90000FFC700004D
:1014800010B5114C204628380088C0050CD420889F
:10149000402101432020814321800D480188012201
:1014A00091430180002004E001F05EF9002802D0A1
:1014B000FF2040B210BD2088C004EED4034800884D
:1014C0000007EAD4FC20F4E752000050200300504B
:1014D00080000050B0B50446124D2888C00501D4E4
:1014E000FE201DE001F040F9002805D0FFF7A4FF21
:1014F000844201D2FF2013E0288DC00408D40A489A
:101500000088072C04D80821084001D1FB2007E0FF
:101510000648012141700470204600F009F80020BF
:1015200040B2B0BD2A00005020030050047FFC07E9
:1015300080B5FFF78DFF0548018801220A4302802C
:10154000034801884907FCD580BDC0468000005093
:101550002A00005010B5084C2188C90509D4FFF7AE
:10156000E7FF208D20210143402081432185002079
:1015700000E0FD2040B210BD2A0000507047C04678
:101580001A43490040014018014942527047C04681
:10159000063000504900400140180249415A1F20BE
:1015A000084070470630005070B5084C049D002D6F
:1015B000254600D1A51C01268E40400146531A4302
:1015C000490040180019828070BDC04602300050AA
:1015D00001228A40400101494252704702300050C6
:1015E00001228A40400101494252704704300050B4
:1015F0008A400120884003490B88834313430B80B2
:101600007047C0461E3000504001034A825ACA400B
:10161000012010407047C046003000500C2901D313
:10162000002200E00122414241411140084670473A
:10163000F0B585B00293039204910B9F781E3D464E
:1016400085410A3A019240269640B0B22A490C8858
:101650002A4988478540B4432C43274E3480348838
:101660003F208443254DA8478740274337802020CB
:10167000019FB840B488844380B2A8470A9981404A
:101680002143B18001200090B840B488844380B2E7
:10169000A8472A46029981402143B18078008419E5
:1016A0000C3C25880F20854390470499491C8140B4
:1016B00029432180039C002C05D40320214681432B
:1016C0001048081803E00C2020400D494018A107DD
:1016D000C90E80228A40FF238B4001689943114341
:1016E0000160002C05D41F2004400099A140064849
:1016F000016005B0F0BDC0460C1400500D17FC078A
:1017000014ED00E000E400E000E100E000280AD071
:1017100006494218521C424000200A4204D0401C94
:10172000520892B2F9E7102080B27047FEFF010024
:101730000A38012319468140204A128800281DD00A
:10174000880736D448071BD408071BD4C8061BD407
:1017500088061BD448061BD408061BD4C8051BD416
:1017600088051BD448051BD408051BD4C8041BD40A
:1017700088041BD448041BD50E231AE0002318E06C
:10178000022316E0032314E0042312E0052310E0F3
:1017900006230EE007230CE008230AE0092308E0F3
:1017A0000A2306E00B2304E00C2302E00D2300E0F3
:1017B0000F231140D940C8B27047C04610140050E2
:1017C00070B50C460A3801218140054D2E888E43A4
:1017D00088B2FFF79BFF844034432C8070BDC04625
:1017E0001014005070B50A38012421468140054D7F
:1017F0002E888E4388B2FFF789FF844034432C80C3
:1018000070BDC0460E140050C0B202460A3A042A07
:1018100004D88000024A8018283801607047C0460A
:101820000C90FC0710B504460A38C0B204280FD843
:101830002046FFF7D7FFA000064940182838006867
:10184000002801D0804710BD0120A0400249086057
:1018500010BDC0460C90FC0780E200E080B50A2075
:10186000FFF7E0FF80BD80B50B20FFF7DBFF80BDF9
:1018700080B50C20FFF7D6FF80BD80B50D20FFF7A7
:10188000D1FF80BD80B50E20FFF7CCFF80BDC046E4
:1018900010B57F241C40094B5C800024022A01D330
:1018A000224603E0D2018A18521CD2B20C2900D37E
:1018B0002246002800D022461A8010BD4000005069
:1018C0000148002101807047400000507F21014005
:1018D000014801807047C04642000050024801881C
:1018E0007F2008407047C0464200005010B5FFF707
:1018F00064FD23480188090518D5224A118805236B
:101900000B40052B12D11088042108431080108849
:101910000123984310801C480368002B2ED002201E
:10192000105E515E0A24125F984710BD0188C906F7
:1019300006D516498A88D20702D00A88120612D420
:101940000088C0061AD511488188890716D50188F4
:10195000C90513D50221818001880D4A0A40028001
:101960000948806807E00120888008888022904329
:10197000088005484068002800D0804710BDC04658
:1019800004000050000200502090FC0700010050AD
:10199000FFFE000070B5114C258810262E432680CE
:1019A0000F4C0425A5803F252B402688AE43F31815
:1019B0002380A181511EC9B26180218880221143F8
:1019C000218020810748016811437F2291430160F3
:1019D000012000040449086070BDC04604000050A6
:1019E0000001005010E400E000E100E070B5114C8F
:1019F000258810262E4326800F4C0825A5803F25DC
:101A00002B402688AE43F3182380E181511EC9B2D2
:101A1000618001210A0223881343238060810748E3
:101A20000268802313437F22934303600804044920
:101A3000086070BD040000500001005010E400E098
:101A400000E100E080B50548012181800188802205
:101A50009143018000F004F880BDC04600010050B1
:101A60000B480188FF20C9070FD10A490A881206CE
:101A70000BD40988C90508D4012000040649086070
:101A8000BFF34F8FBFF36F8F002040B27047C04647
:101A9000000200500001005080E100E080B50548E0
:101AA000022181800188044A0A400280FFF7D8FFA2
:101AB00080BDC04600010050FFFE000001494860A3
:101AC0007047C0462090FC07014988607047C046B7
:101AD0002090FC07014908607047C0462090FC0731
:101AE0000121C9020C4A13880B4313808179C27902
:101AF0000A430189114302880A43418811438288BD
:101B00000A4306494A80064A0A804A8800234B80D5
:101B10004A80408908807047040000500602005047
:101B2000E703000080B505480021018000F00CF8B3
:101B300003480188034A0A40028080BD0802005021
:101B400004000050FFF7000080B50448018801221E
:101B500091430180FFF784FF80BDC0460002005022
:101B60000A490A880A4B1340C000181808800888E0
:101B70000122104308800748016880230B437F211E
:101B80008B43036010040449086070470002005052
:101B900007F8000010E400E000E100E0B0B50A48FA
:101BA00002880121CB0204881C430480074C0425D1
:101BB00025801A400388804C1C40A218028008042B
:101BC000A2490860B0BDC0460400005000020050A9
:101BD000FEB54E4C002121800326F50129469031A7
:101BE00061804027A7805C2249498A5AA281A28944
:101BF0003A4330239A43A281464A1760BFF34F8F7E
:101C0000BFF36F8F00287BD0029601952288BA43DC
:101C10000578AB0113432380E6887022964343780E
:101C200019013143E180002D05D1E1880725A94341
:101C30001B090B43E380C1784B1E9941890023881F
:101C40000425AB430B43238001790902A388DBB24F
:101C50005918A180E18811402F4E40292DD16220D2
:101C60002B49085A002800D12E482F49088001200E
:101C70000003218801432180192005F063FA019AAD
:101C800010468030218801432180208838432080FD
:101C900060882843608060882449014061800F206B
:101CA00040026188014361804036608830401043C3
:101CB000608060880299884321E02188174A0A40A1
:101CC00022806188164A0A40817849021143618066
:101CD0006188029A914342790A436280817900299E
:101CE00001D10A4601E0019A803221883140114336
:101CF0002180403661883140C0798001084360808E
:101D00002088012101432180FEBDC04600150050FE
:101D1000A08FFC0780E100E0FFFD0000FFEF000066
:101D2000FFE1000040760000D07EFC07FF1F0000AE
:101D30000248018801220A430280704700150050C2
:101D40000748012101802121090141804021818032
:101D500004480160BFF34F8FBFF36F8F7047C046D9
:101D60000015005080E100E080B504480188082299
:101D70000A430280102005F0E5F980BD02150050ED
:101D800002480188082291430180704702150050E3
:101D900010B5084A1388084C1C40C002204310802C
:101DA000508830239843090101435180FFF7DCFF3D
:101DB00010BDC04600150050FFF7000003490A8817
:101DC00070239A43000110430880704706150050A5
:101DD00003490A8807239A4302430A807047C04692
:101DE0000615005009490A88202313430B8008492F
:101DF0000860FF20000407490A6882430120C005EB
:101E00001018086004484021016070470015005018
:101E10002C90FC0704E400E000E100E008484021C9
:101E20000160BFF34F8FBFF36F8F064802882023F6
:101E30009A4302800448002202600448016070470F
:101E400080E100E0001500502C90FC0780E200E0EB
:101E5000024801880122914301807047001500501B
:101E60000248018802220A43028070470015005090
:101E70000548018802220A43028001888907FCD4B0
:101E80000121C181008A704700150050FEB504464B
:101E90000090314D28880290688801900020FFF75B
:101EA00097FE688804210143698068882B490140B6
:101EB00001267002091869802988294A0A402A8067
:101EC000370269883943C0220A436A802988402240
:101ED0009143A2010A432A802989224A1140091804
:101EE0002981698911400818688128888021014367
:101EF00029802888B8432880FFF7BAFF298839430A
:101F000029803F218F028409FFF7B2FF810916481B
:101F1000009A012A0AD1620003235B029A1A2C89D3
:101F20003C4014432C814900591A06E0B202131BAD
:101F30002C893C401C432C81511A6A893A400A433F
:101F40006A81298801402980FFF792FF0298288042
:101F500001986880FEBDC04600150050FFE10000FA
:101F6000FFFD000000FCFFFFFFFE000080B50448FD
:101F70000121018003480068002800D0804780BD0F
:101F80000E1500502C90FC07F8B51F4A1F490B880E
:101F90001B0707D48B1E1B8840241C4006D0134609
:101FA000563305E0134660335E3206E013465A337B
:101FB000002C01D0543200E058320026925F9C5F22
:101FC00007239B010D881D409D4204D00988C90547
:101FD000490F06235E1A00960D4F7843D5192946FE
:101FE0005DF710F806467C43204629465DF720F849
:101FF000311AB942084600D33846064A914200D900
:1020000000200099C840F8BDA08FFC0702150050C1
:10201000FFFF0000FEFF010080B50120000304491E
:102020000A8802430A80192005F08CF880BDC0465A
:102030000015005080B50748018802220A4302803B
:1020400001888907FCD40121C181008A00F004F8CD
:1020500080BDC0460015005080B50B490988401A64
:102060007D21C9004143002804DC084A8918C017B3
:10207000084001E00648081806495CF7D9FF8009C6
:10208000193040B280BDC046D07EFC072BFDFFFF5B
:10209000D5020000AA05000070B514460D4606469C
:1020A000064801210180002D07D03088FFF7D4FFBA
:1020B0002070B61C641C6D1EF5E770BD0E15005037
:1020C00004480188044A1140044B1980408810409C
:1020D0005880704708150050FF0300003090FC073F
:1020E00010B507480188074A1388074C23400B4363
:1020F00013804088518821400143518010BDC04663
:102100003090FC070815005000FCFFFF06480188CE
:10211000064A114001235B02C91801804188114021
:10212000C91841807047C0460815005000FCFFFFE9
:1021300070B5EFF31081012484F31088284A1388C6
:1021400020251D431580002902D084F3108802E069
:10215000002181F31088234D2988A14329802988F3
:10216000C907FCD1204900220A8602888A82428857
:102170000A8382888A83C2880A840A8806239A434B
:10218000437A5B0013430B801F22D2438B8F134093
:10219000867B761E1E438E870B8F1340C27B521E9A
:1021A0001A430A87817A012905D18289C17A007A86
:1021B00000F020F803E08189C07A00F03DF828881B
:1021C000204328802888C007FCD008480168802266
:1021D0000A437F218A43026005481021016070BDD7
:1021E000040000506C1300500013005004E400E0A1
:1021F00000E100E0B0B50F4B1C88012525431D8090
:102200001C88402525431D801C882025AC430129BE
:1022100000D10846400104431C8018881024A043C4
:102220000901014319803F20800299880140114330
:102230009980B0BD0013005010B50B4A13880124DB
:10224000A343138013884024A343138013880824D6
:10225000A343C000184310803F208002138903402D
:102260000B43138110BDC04600130050064801887F
:102270000122914301800188C907FCD103480188EC
:1022800020229143018070476C13005004000050DD
:10229000FCB501925A0000931A430227174000240C
:1022A000164D26460A0417D0491E2A889207FCD5E7
:1022B0008BB25A425A41002F01D13A4600E05202F5
:1022C000035D13430E4A1380641C761C2A8A002A7D
:1022D000E8D01C3D28880AE000220098C00705D0FD
:1022E00028884007FCD528888006FCD4264601981B
:1022F000002800D00280B0B2FCBDC0467013005070
:1023000010130050FFB501920390022018400027DF
:102310001C4E1D4D02970097029A93B28B4228D211
:10232000BAB28A4211D2AA8B92070ED501221402A8
:102330007F1CBAB28A4201D0224601E00322120277
:10234000002800D122463280EAE78B42029300D86F
:1023500002918B4208D2AC8CA40604D03488039A34
:10236000D4545B1CF5E70293AB8D002BD4D02888A6
:1023700000E0009B01980028029900D0038088B2F9
:1023800004B0F0BD1013005054130050B0B50C4C05
:102390000025A5802180214614310DC10498C10774
:1023A0008A0F024322620748828C002901D1502102
:1023B00002E0018E25210901018003486063B0BD60
:1023C0003490FC0730130050E123FC07024A1180CF
:1023D000024948637047C046301300503490FC07F0
:1023E00070B541061E4C1DD4800520D41D498B8834
:1023F0004A691D480D889BB2AB4222D2A68BB60714
:102400001FD55E1CAE4201D0002504E00D6A0226F5
:102410002E4075086D02D35CEB1803808B885B1C23
:102420008B80E7E7002000F06FF9208870BD0D4831
:1024300001888088411A4842484100F065F9A08926
:1024400070BDAB4206D12022895CC90703D10120AF
:1024500000F05AF970BD018C10229143018470BDC7
:10246000541300503490FC0710130050B0B5084CC2
:1024700000252582A5812181606204982063E362A2
:10248000A262044860630448818C54210180B0BD7D
:102490003490FC079D24FC073013005070B54006B3
:1024A000184C18D4184819490A890B8A934217D234
:1024B000A58BAD0714D55D1C0D8201231B020E6B8D
:1024C000B60701D41E4601E003263602954200D02D
:1024D0001E460680E8E7002000F02EF9208870BD37
:1024E0008B894D6A934207D2A68CB60604D0068823
:1024F000EE545B1C8B81F5E7934202D1012000F082
:102500001BF970BD54130050101300503490FC0799
:10251000B0B50022064B074C8A4206D21D88AD0694
:10252000FAD025888554521CF6E790B2B0BDC0465B
:102530007813005010130050F0B500230F4C104ECC
:102540001D460F040DD0491E2788BF07FCD5C75C68
:1025500037805B1C6D1C278A002FF2D01C3C208822
:1025600007E020884007FCD520884006FCD40027DF
:102570001D46002A00D01780A8B2F0BD701300508D
:1025800010130050B0B5064C0025A58121810549E6
:102590006163214624310DC1034804490180B0BD67
:1025A0003490FC07B125FC073013005006020000F0
:1025B000F8B5044680070F4D03D5002000F0BCF8A5
:1025C000288F0D4A9089536A11890C4E378BBF06AC
:1025D00006D0884204D22F881F54401C9081F5E712
:1025E000A20502D4884200D0F8BD012000F0A4F872
:1025F0003088F8BD101300503490FC076013005071
:10260000B0B5074C0025A5802180214614310DC1AD
:10261000044860630448818C04490180B0BDC04611
:102620003490FC073126FC0730130050E60200000E
:10263000B0B5044640061F4D03D5002000F064F8F5
:102640002888A00704D5002000F05EF81A48008F03
:10265000200616D4A0051CD4A00625D5164C174874
:1026600003888188994220D24269994220D2AB8B5B
:102670009B071DD54B1C8380515C2180038881887A
:10268000F3E70E4801888088411A484248412C1DD2
:1026900007E00A4801888088411A484248410C35C1
:1026A0002C4600F031F82088B0BD40340020F8E717
:1026B0004034F8E754130050101300503490FC07D6
:1026C000044800210180044841630448102101604E
:1026D0007047C046301300503490FC0780E200E0A1
:1026E00080B50648416B06480088002901D088471C
:1026F00080BD04481021016080BDC0463490FC07B5
:102700002C13005080E200E080B50246074800210B
:102710000180074841634161064910230B608369CA
:10272000002B02D08188C069984780BD30130050CB
:102730003490FC0780E200E080B5024607480021A3
:102740000180074841634162064910230B60836A98
:10275000002B02D08189C06A984780BD3013005099
:102760003490FC0780E200E0014800787047C046E2
:102770006C90FC0701480021017070476C90FC07C9
:1027800070B5EFF31085012484F310880520060747
:10279000708DC00509D511480470FEF74DFE104933
:1027A000087010480088204048703088802101431C
:1027B00031800D4801680722914301604168490753
:1027C000FCD50A4901610A494161002D02D084F318
:1027D000108870BD002080F3108870BD6C90FC07DD
:1027E000047FFC07800000500000F4070F009909E7
:1027F000090404A4800003A108580649086006489B
:102800004860704701009909030099090700990978
:102810000F0099091000F407090404A47CB50446CC
:102820000E4D28680726304001A9087008788442B8
:1028300012D00B480088C00507D5A01EC0B20428DE
:1028400003D808A1085C00F011F82868B0432043C1
:10285000286068684007FCD57CBDC0460000F407CE
:102860002A0000500B130B0B0B00000010B50446A0
:10287000FEF7E2FD844202D92046FEF7E9FD064854
:102880000188C90707D1018801220A430280034851
:1028900001884907FCD510BD800000502A00005077
:1028A00070B50D4604460320FFF7B8FF0C4884605E
:1028B00045600168C907FCD00420FFF7AFFFFF2087
:1028C000C604AD00A859844207D10520FFF7A6FF32
:1028D000A859211A4842484170BD002070BDC04629
:1028E0000400F40710B504460220FFF797FFFF200D
:1028F000C004A100085810BD70B514460D46064628
:102900000320FFF78BFF00210848A14209D032685D
:102910008260456002689207FCD5491C6D1C361D1B
:10292000F3E70168C907FCD070BDC0460400F40796
:10293000F8B514460D460746FFF7DEFF0423384678
:102940002946224600F011F8002600280BD0052366
:1029500038462946224600F008F8002803D0032014
:10296000FFF75CFF01263046F8BD70B514460E46F1
:1029700005461846FFF752FFFF20C004B1000918B2
:102980000020844207D00A682B68934203D1091DB6
:10299000401C2D1DF5E7A04201D2002070BD012092
:1029A00070BD70B514460E4605460220FFF736FF8F
:1029B000FF20C004B1000818002C03D002C802C5D3
:1029C000641EF9E770BDC04670B5EFF310850124B1
:1029D00084F3108805200007028880210A430280C2
:1029E000144A13680726B343136053685B07FCD58A
:1029F000114B1361114B536102888A430280408D51
:102A0000C0050DD50E48002101700E4E3078FEF73E
:102A10001FFD7078002803D10B480188A143018075
:102A2000002D02D084F3108870BD002080F3108840
:102A300070BDC0460000F4070F009909090404A402
:102A40006C90FC07047FFC078000005070B52F4C91
:102A50002F4D304E40E0AA8CE88C90422FD2296A4C
:102A6000904239D22289C0231340C02B03D132882F
:102A7000920703D430E0A28A92062DD5421CEA8444
:102A8000085C2080AA8CE88CEAE72A6B002A23D015
:102A9000012105E02A6B002A1ED0A08A9E21014058
:102AA0002046904718E000F005FAA08801218843ED
:102AB000A080A96B00290FD0E88D88470CE0A08882
:102AC00002218843A080A08880218843A080696B70
:102AD000002901D0A88C884720890F210140481E79
:102AE0000B28F9D878440079400087440D0C0B0876
:102AF0000B07060B0B0B0B05D5E7C6E7CAE700F083
:102B0000D9F9E9E7E8E7A6E770BDC0460011005033
:102B10007090FC077C11005010B5EFF3108201217A
:102B200081F31088094B984201D0402000E08020BA
:102B3000074B1C8804431C80002A02D081F31088B4
:102B400010BD002080F3108810BDC046001000505A
:102B500004000050B0B5882201218152EFF31082A9
:102B600081F310880F4B984201D0082400E0042420
:102B70000D4D2C60BFF34F8FBFF36F8F0B4D2C604B
:102B80008024E443984200D040340948038823401D
:102B90000380002A02D081F31088B0BD002080F3AA
:102BA0001088B0BD0010005080E100E080E200E03D
:102BB0000400005010B5828980231A438281CAB272
:102BC000C02402538AB2120A0280090CC9B2818061
:102BD00081899943818110BD044A801A421E904127
:102BE0004001034A101841617047C0460010005070
:102BF0007090FC07044A801A421E90414001034A2B
:102C0000101881617047C046001000507090FC079A
:102C1000044A801A421E90414001034A1018016183
:102C20007047C046001000507090FC07FEB50C467F
:102C30000546FFF771FF7C20285A2088A1780904F7
:102C400041182846FFF7B6FFE0781F210140C00871
:102C5000042202400A43AA8128467C30E178C9094F
:102C60008183032166561D4B18461038002E21D54E
:102C70002A469C32854216D17608202702973E408C
:102C800001961F88029EB743019EBE191E80E678FA
:102C90007609022702973E4001961F88029EB7439D
:102CA000019EBE191E8023791B079B0F1380237979
:102CB0000B409380281A411E88414001084908189A
:102CC000A1680177E1680161216941616169816100
:102CD00021790907890F4177FEBDC04610100050C9
:102CE0007090FC07828A9206FCD50180704770B50F
:102CF00014460D460646200406D029783046FFF7D4
:102D0000F1FF641E6D1CF6E770BDC04670B5174D2F
:102D1000441B661EB4416401154E3419A28000267E
:102D2000E680012B04D0002B1ED1FFF7E0FF70BD21
:102D300021600221A84201D10A4600E003220125B8
:102D400095400C4B1D60BFF34F8FBFF36F8F83888F
:102D50000B438380818880230B438380217F10462F
:102D600000F00CF80448056070BDC046001000502B
:102D70007090FC0780E100E000E100E08007C00EF9
:102D80008907090E8140FF2282400348036893436C
:102D90000B4303607047C04600E400E0818A4906A7
:102DA000FCD57047818AC907FCD00088C0B2704743
:102DB00070B514460D460646200406D03046FFF78F
:102DC000F1FF2870641E6D1CF6E770BD70B5174DDD
:102DD000441B661EB4416401154E34190026E68179
:102DE000A281A160012B04D0002B1DD1FFF7E0FFD1
:102DF00070BDA84201D1022200E0032201210D464C
:102E000095400C4B1D60BFF34F8FBFF36F8F8388CE
:102E10000B438380818804230B438380217F1046EA
:102E2000FFF7ACFF0448056070BDC04600100050BD
:102E30007090FC0780E100E000E100E007490A46ED
:102E4000103A904200D070470888202202430A803E
:102E50000888022202430A807047C04610100050C2
:102E600010B50446481CA18A490602D5A18A8906E4
:102E700002D4401EF7D118E00D48014610398C42AB
:102E800007D10188202291430180018802229143C9
:102E90000180FF200A3004F055F9A08AC00701D153
:102EA000012010BD2046FFF7C9FF002010BDC0461D
:102EB0001010005070B50D48C38D826A848D0C4986
:102EC000A34208D28D8AED070ED00D885E1CC68500
:102ED000D5543346F4E78A8801239A438A80816B6C
:102EE000002901D0C08D884770BDC0467090FC0796
:102EF00000110050F8B518480068184EB04229D0AB
:102F000017480068AF490860164801681648017004
:102F10000A0EC2700A0C8270090A417007218901E9
:102F20000022124B00290AD0491ECC5C9F5C03256D
:102F30003D40455D65407D409D54521CF2E7041DB7
:102F40000A491C2220465EF76BF820465DF7FCFF1D
:102F500001480660F8BDC0469CB8FC07658734127E
:102F60004CB9FC07007FFC07187EFC07E891FC07C2
:102F7000F8B50F4FBC682046FDF7F4FC0D490A6810
:102F800000230B6016180C4D304629465CF73AF8C2
:102F900078610A494143881901D0281A80B2386102
:102FA000386808210143396005480460F8BDC0460F
:102FB00030000040B490FC07710200008FFDFFFF5D
:102FC000C090FC0710B5FEF7EDF90C4801884907E1
:102FD000FCD4FEF7F2F90A4800880A4908800A483A
:102FE0000088801E094C608007202080FEF7DAF9F7
:102FF00020884007FCD400F00BF810BD08330050C7
:10300000408FFC0702000050748FFC070016005030
:1030100080B5FEF7D2F90D484188890703D0418871
:10302000032291434180018880220A430280018962
:1030300004229143018181898907FCD500F0B8F809
:103040000348016801684907FCD580BD08000050AD
:1030500010000040FEB53A480168C90703D0016876
:1030600002220A43026001230168490203D599053F
:1030700002680A4302601D0202935E02314F01960C
:10308000384608380468002C58D0200606D5802021
:1030900038604AF7FCFB1E20FDF7DCFBA00703D5D8
:1030A0000220386046F7F1FA20070BD50820386077
:1030B00003F0BEFD002046F7A1FA04202349087062
:1030C00000F0F2FE2C4203D03D60012046F796FA54
:1030D000344202D03E604AF743FC600603D54020EC
:1030E000386046F786FAE00603D51020386044F7CA
:1030F00043FE600710D504203860134A10880299F7
:10310000884310805AF7E0F93FF79AFA1E20FDF73E
:10311000A1FB00200D490870E0070AD02E46029D51
:103120003D605AF7EDF94AF7B2FB0848057035469D
:10313000019EA006A4D520203860A1E7FEBDC046B0
:10314000000200401800004008330050B190FC0716
:1031500070477047B0B5D54C201F0588280701D5AA
:10316000FFF7F6FFE80708D02088072188430849C1
:10317000097801432180FFF7ECFF680706D5208816
:10318000072188430349097801432180B0BDC04627
:10319000B090FC07C590FC0780B53FF796F8024851
:1031A00000680249086080BD08020040B890FC0732
:1031B00080B53FF7B6F8024800680249086080BD54
:1031C000B890FC0708020040FEB55D4E3068806A8A
:1031D0000290FDF7C1FA002803D15A48007902286D
:1031E00001D100200290C64DE8880024C00700D01D
:1031F0009EE059F7CEF9002800D199E0514FF878B8
:103200000124012800D093E04F4880890421C007A1
:1032100000D08CE03888002800D089E00191FDF7CB
:103220009BFA002806D14948806A002802D03068FD
:10323000806A0290FDF74EFBB97802A859F7A1FF0A
:10324000002875D0424E3068400671D4B97802A883
:103250004AF774FC00286BD00120FEF7B9F80298F9
:10326000002806D031693B4A8918DA2901D8401E66
:10327000029039480088394909680A1838480260BC
:10328000F26A384B13400B43F362F16A364A0A4044
:10329000364C216889021143F162F16A344A0A40CE
:1032A000006840058018F062029A3248824241D29A
:1032B00031498868C96800235BF7CEFE0903000D19
:1032C00041182068821C8A4200D0481E39794A1E63
:1032D000914146F749FB2948C06A8047FDF7EAFB60
:1032E0000446002801D0FEF75DF8306A0004FCD5E2
:1032F000B14E3068C005FCD530688027B8433060D7
:10330000002C01D0FEF759F82889452804D8462119
:103310002981081A1A490860FFF73EFF3068000645
:10332000FCD5BD490888B8430880019C00E00C46E4
:103330002046FEBD7148C821018008202880FEE794
:1033400058B9FC0754BAFC070800005074BEFC07CB
:1033500010000040C8FEFFFF748FFC07807EFC0752
:10336000087FFC0700FCFFFFFF03E0FF847EFC07F3
:10337000FFFF1F0040420F00888FFC0758BFFC076B
:10338000B490FC07002070477047C046F0B58BB082
:103390003021002545543949394A3A4B43613A4B6B
:1033A0003A4C3B4E3B4FC761046242628162C3624A
:1033B00039490660416000F009FD1F2000043749CB
:1033C0000A6882430124600410180860E00434494C
:1033D0000A6882430A60282D03D001A845556D1C58
:1033E000F9E730480068403001A928225BF784FEE5
:1033F000092000F061FD00F06BFD002802D00120E3
:1034000000F05AFD00F044FDFDF768FFFDF798FF5E
:1034100000F056F900F09CF800F0B2F800F0D2FC91
:10342000214804702149098807220A40427003F0AC
:103430000DFE00F02FF900F0F1F81D490B881D4832
:1034400004681D4A1440E31803601C4B1C888569FE
:1034500015402C1984615B88C4691440E318C3616A
:103460004B8A046A1440E3180362898A436A134052
:103470005918416200F018FD0BB0F0BD8933FC070C
:103480008533FC07C134FC070535FC072735FC07ED
:103490002535FC072B35FC072935FC077400004057
:1034A000000200404CB9FC07C490FC07B810004073
:1034B0001030004088A0FC070000FFFF643000408F
:1034C00080B5022901D0012911D1002808D0FF2898
:1034D0000AD00A48C8210180094808210180FEE776
:1034E000022901D10C2080BD00F0ECFC80BD034816
:1034F000C8210180024808210180FEE70031005008
:10350000023300500548016807220A430260012087
:10351000800403490A6882430A6070473000004013
:103520000002004070477047704780B5E62800D31E
:10353000E620282800D82820F9214A0042437D208F
:10354000C10010465BF75EFD7F38C0B280BDC0464B
:1035500018B50848016800910099074A009B1A4075
:10356000FF2424040C40D9B20919044BC918114393
:10357000016018BD8000004000FF00FF0A000A0043
:1035800080B50220FDF724FF012148050A4A13688F
:10359000834313608807002242671F221204436F8F
:1035A00093434904591841670168E0220A431021F6
:1035B0008A43026080BDC0460002004080B51F20E3
:1035C000000401218A07536F834348041818506789
:1035D00010680721884310600F48018808220A43B9
:1035E000028000F075FC002802D0012000F064FC8D
:1035F00000F04EFCFDF772FEFDF7A2FE00F060F851
:10360000FFF7A6FFFFF7BCFF00F008F800F04CFC46
:10361000052003F043FD80BD0800005010B50748A9
:103620000188074A1368074C2340591811604088E5
:10363000516821400818506010BDC0463830004025
:1036400098A0FC070000FFFF10B504460548064996
:1036500070225BF751FD0548001B054908801430B6
:10366000488010BD70A0FC07C473FC07B8A0FFFF22
:1036700078A0FC0780B500F00BFCFDF761FE00F0C0
:103680001FF8FFF765FF03F0E1FC00F003F800F01E
:103690000BFC80BD10B507480188074A1368074C2A
:1036A0002340591811604088516821400818506023
:1036B00010BDC046183000408CA0FC070000FFFF82
:1036C000FCB57F200002594A516981430B2000025A
:1036D00008185061106880B2554940181060906910
:1036E000544C04400123580300902018906103209B
:1036F00001900002146B04431463908F1024044360
:1037000094879088184390804B484C4A02604C4AFA
:10371000104610384B4DAC8B044015204301E01887
:103720005030A8836869484C0440484820186861B4
:10373000A869474C0440092040022018A861286865
:10374000444C04404448201828606868434C0440B6
:10375000434820186860A868424C0440424820183A
:10376000A860E868414C044041482018E860C12046
:103770004001404C2478240620183F4C206005204E
:1037800080023E4F3880401DB880388C5526064355
:10379000AA2086433E84FF266C363046C9303885E1
:1037A000374908460E30B88536483886B986C01D78
:1037B000388735482885A86B3449014034480818B3
:1037C000A863344D2E80288F10401F462037C01923
:1037D00028873148018811408919D53101808188B5
:1037E0001140C918818001891140C9190181213610
:1037F000AE802A4801881140C91860310180818A51
:1038000019220A4306218A438282A08F244901405B
:1038100000980818A08723480168019A11430422E0
:103820009143016020486066FCBDC04620300040E6
:1038300000008888FF00FEFF8000004059055C07FB
:103840001FFCFFFF042000400000E0FF09581A00A1
:10385000FEE1FFFFE0E00000080929490000030342
:10386000696A686C031FFFFF70600000E0E0E0E041
:103870000B0A0A08C890FC070010004028130040FB
:10388000260A000051080000070F00002F64E0FE28
:10389000101A060100120040441200408812004035
:1038A000FF9F00008010004050015001F0B589B02A
:1038B000324908680790886C0690C86C0590304CB7
:1038C000206808902F4E306A04902F4A10680390A9
:1038D0002E4B18680190306802902D4800680090C7
:1038E0001868012738431860B77100258D64CD64CE
:1038F000284820602068022101432160F8032168E4
:1039000081432160B8032168014321600320000244
:10391000216881437802081820601560756203F001
:10392000F8FB306A800728460FD4306A384330628B
:1039300003F0F4FB306AC007284606D003F0F8FB1A
:10394000306AC007284600D1384675620B49079A8D
:103950000A60069A8A64059ACA64049931620A491F
:10396000039A0A600949019A0A600899216002993C
:1039700031600749009A0A6009B0F0BD08120040A2
:10398000282000400010004094120040A810004081
:103990000030004094A4F800FEB53E4803210170B9
:1039A0000C4606463C4D28461438016814220A434A
:1039B0006B218A43026000F08DF84320287137485C
:1039C0008047374880473748804734702646364816
:1039D000046836488047364880472868354908409B
:1039E000E105401828602868334A1040490C401807
:1039F0002860412001902871686830490840012101
:103A000002918F02C019686024488047244880478B
:103A1000244880471F48067023480468234880478D
:103A200023488047286823490840E105401828605A
:103A30002868214C2040490C4018286001982871C2
:103A400068681E490840C0196860144880471448D7
:103A50008047144880470F4806701348006829685B
:103A6000144A1140C2058918296029682140144E62
:103A70000640B001081828606868029CA04368608E
:103A800000F0BCF809488047094880470D48468146
:103A90002046FEBD05100040183000404D3BFC079D
:103AA000613BFC072771FC0788300040A13BFC0705
:103AB0001371FC07FFFF7F003F80FFFFFFF9FFFF4F
:103AC000FF010000D27EFC0701480321017070470E
:103AD0000510004010B51848816A184A116000218D
:103AE000C943816202683F218A4302600123DA03ED
:103AF00004689443046003225202446894439B0286
:103B0000E3184360436840241C4330239C434460D3
:103B10000B0684699C430B235B06E31883618901D0
:103B200083698B4399188161816918220A4327218F
:103B30008A43826110BDC04618300040FC7EFC07FD
:103B400001484321017070471C30004080B5034894
:103B50000221017003F0D8FA80BDC0460610004073
:103B600080B50B4801688905C90E0A4A11701F21EA
:103B7000490102688A430260074801210170074831
:103B8000016803220A43026003F0C8FA80BDC04600
:103B90004C1200400379FC0706100040AC100040B6
:103BA00080B508480021016003F0B8FA06480078A3
:103BB0001F214901054A13688B43C006800DC018B8
:103BC000106080BDAC1000400379FC074C1200402F
:103BD0000548412101700321490202688A430121FD
:103BE00089025118016070471C300040024801688A
:103BF00001229143016070471C3000401248016867
:103C00001248816201681C220A4323218A43026010
:103C10000121C90302688A4302603F210A068369C1
:103C20009343072292069A188261890182698A4326
:103C30000F21C9015118816181691E220A43212186
:103C40008A4382617047C046FC7EFC071830004002
:103C5000F0B585B0554803240470554D28681421EB
:103C600001436B2081432960FFF77AFF03F05BFA81
:103C7000EA6FE96FE86F2B6D1E26B3431207D20E71
:103C80009A182A65072252022B6D934370220A402C
:103C90005101591829653F214904800208402A6DC5
:103CA0008A4310182865286D42490840610740186A
:103CB00028650227F9430191E86C0840E864E86C44
:103CC00001242043E864286D2043286521020491E3
:103CD000286D0843286521040391286D0843286551
:103CE0003548401C296D01432965286C402102910B
:103CF00008432864286C1F2101432964E86C384379
:103D0000E86403F015FAAE6F2C488682E86C0199DE
:103D10000840E864286D27490840052149074018F4
:103D20002865E86C3843E86403F002FAA86F234979
:103D3000C88221490E400840311A21485BF762F9D8
:103D40001E4F3883E143EA6C0A40EA642A6D0A4058
:103D50002A65296D049A91432965296D039A914337
:103D60002965E1052A6D8A432A65296C029A9143E7
:103D70002964C105C90FC8407F220240C80110183C
:103D8000C61CFFF70DFF03F0C4F97E70F0B2E968BE
:103D9000FF2291430918E96000021102EA688A4390
:103DA0001018E860204605B0F0BDC0460510004080
:103DB00004300040FFFFFF00FFFF7F00D27EFC07C2
:103DC00040E0000080B5FFF7E7FD80BD7047704719
:103DD0000148082101707047041000400248016842
:103DE00002220A4302607047243000400448002148
:103DF0000170C26A034B1A60C943C1627047C04672
:103E000014300040FC7EFC07034800680349C86288
:103E10000A2008707047C046FC7EFC071430004042
:103E200001204107044A13688B431360000711689F
:103E3000814311607047C046143000401348016848
:103E400008220A430260016880220A4302600121BD
:103E5000CA020368134303604A07036813430360FD
:103E60000A07036893430360CA06036813430360A9
:103E70008A060368934303604A060368134303609A
:103E8000090602688A4302607047C046B8100040C5
:103E900010B5044C08202070112003F053F90320C2
:103EA000607010BD041000400248022181700021A2
:103EB0000180704704100040014908707047C046F7
:103EC000C890FC07014800787047C046C890FC07BE
:103ED000014840787047C046C890FC0705484178C3
:103EE000002906D101214170034909680901090F20
:103EF00041607047C890FC070010004004484178BA
:103F0000012903D100214170416801707047C0460A
:103F1000C890FC07F0B589B01D4616460C46FD203A
:103F20005DF766F9002813D007460296039508A9A5
:103F300000260E7020885EF787FA05466088002804
:103F40000DD05148C8210180504808210180FEE76A
:103F50004D48C82101804D4808210180FEE7002D11
:103F60000DD04D4804230399029A58F743FD8570FC
:103F70002188018058F759FD002009B0F0BDFD20CF
:103F800000F094FF00284FD001460398050A08A8C6
:103F90000078142242434B689A181379022B01953A
:103FA00023D1126812883A4B9A421ED10020059004
:103FB000049020885EF7E3F900285DD007A900226D
:103FC00004AB4CF7D1FF0120400207990140480A99
:103FD00021465EF7BFF9C5B2002D2DD1E28808A8B1
:103FE000017801985EF791FB26E089690029354642
:103FF00005D0A2880D466188A31DA84705460596F1
:104000000496208804A94CF72AFD002D14D108201D
:104010000499085E00280ED46288A1882088A31D18
:104020004CF787FD054607E01748C821018017486F
:1040300008210180FEE70025002D92D13846019D20
:1040400029465DF7F3F80146A088801D83B2114828
:10405000029A58F7CFFC0646801DA288A11D5BF787
:104060004BF808A800787080A088B0803570304682
:1040700058F7DBFC002574E70348C821018003489A
:1040800008210180FEE7C046003100500233005095
:10409000022900000AFD0000160C000070B514464D
:1040A0000D46104658F7ECFE01282ED12878010263
:1040B0000831AA791648002A0CD089B20623224674
:1040C00058F798FC0646A8785EF7B0F93080A879D2
:1040D000307113E0AA8889B2921D93B2224658F734
:1040E00089FC0646A8785EF7A1F90021317130807D
:1040F000AA887280701DE91D5AF7FEFF304658F7F6
:1041000094FC0021204658F7A6FE002070BDC04652
:10411000140C000070B50125134C002821D1134E5A
:10412000E80720D0002525606560A560E560256171
:1041300066611020214658F75CFE1834F0E7E08AEB
:104140005DF7DCF8002802D041682046884700254A
:10415000E5816560A560FF20E082207D58F7A3FE21
:104160001834E807EBD170BDD090FC071000FF00B9
:10417000F8B5044601200A4E0A4F3546C0070ED056
:10418000E88AFD2800D177605DF7B8F8002803D0F1
:10419000826828462146904718350020EEE7F8BD92
:1041A000D090FC07D874FC0780B500F063F980BD9F
:1041B00080B55FF79DFA0020FCF742FA80BDC0464B
:1041C00080B50C214143054A51188978FF2902D056
:1041D00000F0E0F880BD00F0C1FF80BD1C91FC073D
:1041E00080B500F0BBFF80BD80B55FF769F900289E
:1041F00001D000F0B3FF80BD80B500F0AFFF80BDFF
:1042000080B504490A780270401C491C5AF774FFB3
:1042100080BDC0462891FC070149498C0180704748
:104220002891FC077D21C1800021818010214180DF
:10423000082101807047C04610B50C46017801295D
:104240000BD000290ED1428808490A704B1C011D71
:10425000D2B218465AF750FF02E04088034948841A
:10426000002000E04820207010BDC0462891FC07C7
:1042700000208880488001200870704710B50446EF
:1042800040793F280FD83EF73AFB2070010EE170CD
:10429000010CA170000A60703EF731FB2071000A2A
:1042A000C0210143617110BDFEB50190FEF768FAAF
:1042B0000220FEF7B3FA1748416802910468FEF73E
:1042C00083FB00252F462E462E2D0FD00298214627
:1042D0002A465FF7B4F8012108400FA14A5D00218A
:1042E0005AF74EFF0E4307436D1CEDE70024019D76
:1042F000302C08D03846314622465FF7A0F82870A7
:1043000008346D1CF4E7019A5079C02101435171C2
:10431000FEBDC046E47FF8071F171C09080E1116E2
:104320001407181D1E271B1506010400232A290A3D
:1043300012250B22281A2D0F2C20210213242B03C7
:104340000D051926100C000080B501460248102208
:1043500000F0F8FD80BDC0464C75FC0710B50B4859
:1043600001780B4ACCB21C236343D45CFF2C07D0EA
:10437000D318491C0170DB68002BF3D0984701E08B
:1043800000210170FF3C6042604110BDE890FC07D5
:104390005074FC0770B504460025084EE9B21C2095
:1043A0004843315CFF2907D030180169002901D04A
:1043B000204688476D1CF1E770BDC0465074FC076D
:1043C00070B50C4E0024B460F4603461052232757F
:1043D0003046153008495AF78FFEF4860425074900
:1043E000284658F706FDFF20B0722846214658F7A8
:1043F00032FD70BD1491FC075478FC071873FC075C
:1044000080B500F001F880BD70B5154D2868002812
:1044100000D070BD134809210422522358F7EAFA4C
:1044200004462860002686720F48E080A0800D2098
:1044300020801822E272FF200830208120460C30B4
:104440000A495AF759FE2B20265420462B302C348B
:104450000521074B22465FF75DF8286870BDC0460E
:10446000EC90FC070D0D00004C040000EC72FC0702
:104470005478FC0780B5FFF7C7FF58F7D6FA044811
:10448000002101600420022158F7E5FC80BDC046F0
:10449000EC90FC0780B500F001F880BD70B5164EB9
:1044A0003468002C26D105461448092104225223E1
:1044B00058F7A0FA044630601148002D01D001469B
:1044C00000E02021A1800721217200266670002DC6
:1044D00001D00F2100E00E212170002D01D101201B
:1044E0008003E0802046093006A1093106225AF7F0
:1044F00003FEE673204670BDEC90FC070D0D000036
:104500004C04000000004C044C04070100010203AD
:104510000405060080B5FFF7C1FF58F786FA044886
:10452000002101600420022158F795FC80BDC0469F
:10453000EC90FC0780B500F001F880BD70B5154D1A
:104540002868002800D070BD134809210422522396
:1045500058F750FA044628601822C2720026867264
:10456000FF20083020810D48E080A0800C202080B2
:1045700020460C300A495AF7BFFD2B20265420460E
:104580000B3024340521074B22465EF7C3FF286811
:1045900070BDC046EC90FC070D0D00004C040000FF
:1045A000EC72FC075478FC0780B5FFF7C7FF58F79B
:1045B0003CFA064800210160042058F761FC0328FA
:1045C00003D00420022158F746FC80BDEC90FC0784
:1045D00070B50D460446084E3078002801D000F032
:1045E000DBFB002D00D075600449204600F086FBFF
:1045F0003070FFF73FFF70BD1491FC070146FC07C8
:1046000080B55EF7DBFF0448002202704168002994
:1046100001D04260884780BD1491FC0710B5054C5D
:104620002078002801D000F0B7FB002060602070E7
:1046300010BDC0461491FC0780B500F001F880BDA4
:1046400010B5014682000D4B9858002800D010BDCF
:104650009C1809020A310A4804220E2358F7CAF9A5
:104660000921017020601021818000218181418118
:104670007D220281C1800821418010BDF090FC079D
:104680000E0E000010B50446FFF7DAFF58F7CDF91B
:10469000A000024900220A5010BDC046F090FC075D
:1046A00080B500F001F880BD10B5104C20680028DE
:1046B00000D010BD0E48092104221D2358F79AF995
:1046C0002060012101750521418200210182818143
:1046D0006421418101810B214901C18013220280A3
:1046E0000A469432C2812031818010BDF490FC07CB
:1046F000110D0000F8B514460D460646FFF7D4FF2D
:1047000007460120387538461530062229465AF7E3
:10471000F3FCFE767C813C81F8BDC04680B5FFF796
:10472000C3FF58F782F902480021016080BDC046EE
:10473000F490FC0710B50D4C2068002800D010BD87
:104740000B48092104220C2358F754F92060012159
:104750008172022101810B214901C1800022428026
:10476000112202802031818010BDC046F890FC07E4
:104770000F0D000080B5FFF7DDFF58F756F904482C
:10478000002101600420022158F765FB80BDC0466E
:10479000F890FC0780B5054809210422012358F749
:1047A00029F90221017058F740F980BD030D00007E
:1047B00080B500F001F880BDB0B5164D2C68002C16
:1047C00025D11548092104222C2358F713F9044652
:1047D000286017202084114820800025658020460D
:1047E0000A3011215AF7A1FC6584E583A5832020B6
:1047F000E0767E210A48415AFB2900D3FB21E1845F
:104800008021405A0749884200D308462085204627
:10481000B0BDC046FC90FC07040D0000030A000078
:10482000B0BBFC074808000080B5FFF7C5FF58F78C
:10483000FCF802480021016080BDC046FC90FC07E6
:1048400010B501020A31054804240123224658F715
:10485000D1F8047058F7E9F810BDC046050E000005
:10486000014800787047C0464C91FC071FB51446BC
:104870000D220292044A0192069A00921A46234699
:104880005EF736FD04B010BD4C73FC0710B5104642
:10489000190A0C4A117058F7F3FA002806D00A4892
:1048A000C8210180094808210180FEE70848092144
:1048B00004220124234658F79DF8047058F7B5F8F0
:1048C000002010BD4C91FC07003100500233005015
:1048D000020D0000B0B50C78641E122C28D8C0461A
:1048E0007C4424796400A7440B231523232323232A
:1048F000232323091F090923090909000020B0BD4A
:10490000487800281AD01048C82101800F48082193
:104910000180FEE74878002813D00B48C8210180A9
:104920000A4808210180FEE7487800F015FDE5E718
:10493000074C2468002CE1D0A047DFE7FFF774FFA5
:10494000DCE7FFF751FCD9E700310050023300509B
:104950003C74FC07B0B51C0A0D4D2C700C78012C72
:1049600003D0092C12D04C7802E04C78432C08D0AC
:10497000002C06D00748C821018007480821018083
:10498000FEE7064C2468002C00D0A0470020B0BDF4
:104990004C91FC0700310050023300503C74FC077E
:1049A000F8B510460C461D0A17490D7058F768FAFD
:1049B000022821D10C20684316490F18BD70FF2D25
:1049C00014D00126FE700420032158F744FA2088F1
:1049D0003880607A3871781D21460A3106225AF7EC
:1049E0008BFB0021284632465EF77EFD2846214695
:1049F00000F03CFC0020F8BD0448C82101800448B8
:104A000008210180FEE7C0464C91FC0700310050B0
:104A1000023300501C91FC07B0B510460C461D0A2D
:104A20000B490D7058F72CFA03280AD10C20684363
:104A30000A490818FF214180204600F0D7FC0020D9
:104A4000B0BD0448C8210180034808210180FEE769
:104A50004C91FC0700310050023300501C91FC07C0
:104A600070B58AB01D461446180A284A1070087896
:104A700002282CD001281AD0002843D16E462121CB
:104A800030465AF752FB3046FFF7BAFB33780A3309
:104A90001F482946224657F7ADFF044600202070E4
:104AA00032786280201D711C5AF726FB27E0684689
:104AB00000210180FFF7B0FB15480A232946224652
:104AC00057F798FF012101700099418018E00020FC
:104AD000019000900E480A232946224657F78AFF84
:104AE00004466D462846FFF79DFB02202070009883
:104AF00060806888A0800198E080E8882081204656
:104B000057F793FF00200AB070BDC0464C91FC07D8
:104B10000B0E0000B0B51C0A024D2C705EF732FB84
:104B2000B0BDC0464C91FC0780B55EF74CFB80BD24
:104B300080B55EF7A7FA80BDB0B51C0A024D2C7097
:104B40005EF75AFBB0BDC0464C91FC07B0B51C0ADD
:104B5000024D2C705EF770FBB0BDC0464C91FC0757
:104B6000B0B51C0A024D2C705EF773FBB0BDC04699
:104B70004C91FC07B0B51C0A024D2C705EF777FB18
:104B8000B0BDC0464C91FC070748018800200906CB
:104B900009D506490968090405D40548008801219A
:104BA0000140484248417047080000503000004032
:104BB00054BAFC0710B50446FFF7E6FF002801D100
:104BC000FBF7D0FD204657F730FF10BDB0B50C46BF
:104BD0004149884231D0414A90421CD040498842E4
:104BE00038D12078401E092857D88000404A1158F3
:104BF000414B994266D03F48814267D137480421F2
:104C000008230A4657F7F6FE217801706168416073
:104C100057F70BFF5AE02078411ECAB2092A35D84F
:104C20008900334A5358334DAB424FD151188A6AE9
:104C30000A60616800F092F848E06268002A33D0A8
:104C40002848824237D2207824494018042158F756
:104C500010FA3BE0531C012198423AD30A329042A9
:104C600037D8C1B2091F8A00214B995800292DD08D
:104C7000204CA1422AD0204CA14227D09A18C01E15
:104C8000002313609362C0B288471FE01648C82112
:104C90000180164808210180FEE71348C8210180E1
:104CA000124808210180FEE70F48C82101800F4803
:104CB00008210180FEE70C48C82101800B4808212B
:104CC0000180FEE710180021016081620498002134
:104CD00001700846B0BDC046010400000304000096
:104CE00002040000FDFF3F0000310050023300507D
:104CF0005091FC07794EFC07E94DFC07B0B5002840
:104D00000ED002461148824211D800241248234690
:104D10000A2B19D00568002D10D0001D5B1CF7E789
:104D20000B48C82101800B4808210180FEE7084894
:104D3000C8210180074808210180FEE701605C1C52
:104D4000E0B2114600F00AF8E0B2B0BDFCFF3F004F
:104D500000310050023300505091FC0770B50C46F2
:104D600005460C4EFFF710FF002806D07019801C76
:104D70000421224658F77DF970BDFBF7F3FC0421AE
:104D8000082330460A4657F735FE4460057057F74A
:104D90004CFE70BD01040000F8B50446401E092811
:104DA0001AD8A0000D494018071F3868002813D0F2
:104DB0000B4DA84210D00B482018401C0426314649
:104DC00058F7A1F93D60082306483146324657F7A7
:104DD00011FE047057F729FEF8BDC0465091FC073C
:104DE000E94DFC07020400007047C046F8B50029F1
:104DF00028D00D4604461A4881422AD2611E00205E
:104E000009291ED88900194A5358002B19D0184E69
:104E1000B34216D0561817482018401C04273946AC
:104E200058F771F93068B0621148306008231148B2
:104E300039463A4657F7DEFD4560047057F7F5FDF1
:104E40002046F8BD0748C821018007480821018095
:104E5000FEE70448C8210180034808210180FEE7DD
:104E6000FDFF3F0000310050023300505091FC071D
:104E7000794EFC07020400007047C04670B500245C
:104E8000084D094E0A2C0BD02868002805D0B042E6
:104E900003D0601CC0B2FFF77FFF2D1D641CF1E73B
:104EA00070BDC0465091FC07E94DFC07014605481E
:104EB0001C38027FFF2A03D01C308A42F9D1704788
:104EC000002070475074FC077047C04670B50C480E
:104ED000092104241823224657F78CFD05461B2080
:104EE0002870FD2630465EF7D7FB0021A982E960D5
:104EF00029616C606E806870284657F796FD70BD1A
:104F00001B0D00001FB51446002202920192069A62
:104F100000921A4623465EF7EBF904B010BD00007C
:104F200080B5FE230340022B01D1042080BD92B244
:104F30005EF700FA80BD80B58A4201D35EF710FAB1
:104F400080BDC046F8B516460D46044608461146D3
:104F50005AF7EBF8277CB74206D91148C8210180DF
:104F6000104808210180FEE7FDF70AFC0220FDF74A
:104F700055FCBE082746002E0DD001CF0068FBF778
:104F8000DDFF2870010EE970010CA970000A68703D
:104F9000761E2D1DEFE7FDF717FD207CF8BDC046FE
:104FA00000310050023300507CB5012100910320F4
:104FB000050200241D230C4E20462A46B0470094CB
:104FC0000621042320462A46B047009408210925DB
:104FD000204622462B46B04700940A232046294605
:104FE0002246B0477CBDC046A915FC07B0B5084CA9
:104FF000012525801B20FCF76DFAFBF7C5FF05484E
:10500000FDF796F8FFF7D0FFA0892843A081B0BD37
:10501000000300503C75FC071FB58888082813D191
:105020006C46002020724A898B891B049A180192D1
:10503000CA88098909048918009104A1224601F04F
:1050400049F9204600F0FAF91FBDC0465365726960
:10505000616C2072656365697665643A2025730D1D
:105060000A000000B0B51D460C460A480823294630
:1050700057F7C0FC03218171002181806188418044
:1050800021780C224A43994989188978017057F789
:10509000CCFCB0BD0EFD000070B5114E0024F470C4
:1050A000B47074703470F01D0EA118252A465AF79A
:1050B00023F874713571FFF77BF811A14423204662
:1050C000224601F007F9FBF72DF8002803D0FBF783
:1050D00043F81CA100E015A1002000F08BFC70BD7E
:1050E000A191FC0706095061726B65030300FF0C78
:1050F000FFFFFF554E534554303030000000000094
:105100004741505F4552525F4E4F5F4552524F529A
:105110003D25642C204741505F4552525F43414E2C
:1051200043454C45443D25640D0A00004C4953332A
:105130004448206E6F7420646574656374656421EF
:105140000D0A00004C495333444820696E69746964
:10515000616C697A6564210D0A000000F8B50024CD
:1051600019A1204600F046FCFFF74AF90546C27A2D
:105170001AA1204601F0AEF81F480679C11D074666
:1051800028460C30324659F7B7FFEE7239467F7920
:10519000263128462C303A4659F7AEFF2B202F54A3
:1051A00016A12046144C324601F094F8FFF762F93C
:1051B0000120A0706078002800D0F8BD6420164956
:1051C000FFF79CFD6070F8BD6164765F7374617277
:1051D000742063616C6C6564210D0A006164765F04
:1051E000646174615F6C656E206265666F72653ABA
:1051F0002025640D0A000000A191FC076164765F20
:10520000646174615F6C656E2061667465723A20DA
:1052100025640D0A000000001D52FC0710B50C4C5F
:1052200000206070A078002805D064200949FFF7AD
:1052300065FD607010BD0A20FAF7DEFF0028F4D08B
:10524000002005A100F0D6FBFFF788FF10BDC04687
:10525000A191FC071D52FC074D6F74696F6E2064AD
:1052600065746563746564210D0A0000F8B50C4629
:105270000546002618A130462A4601F02BF80C20DE
:1052800068431A4908188078FF2814D0184FBE7058
:10529000BD716088082807D3102805D8A088002889
:1052A00002D1E0887D2808D07D20C0001149FFF799
:1052B00025FD387001E0FFF751FF00260EA13046B2
:1052C00001F008F828462146FEF77AFF13A1304680
:1052D00001F000F8F8BDC046436F6E6E65637465FB
:1052E0006421206964783D25640D0A001C91FC0747
:1052F000A191FC074553FC077374617274206465C7
:105300006661756C74206170705F6F6E5F636F6E45
:105310006E656374696F6E200D0A000066696E69C0
:10532000736865642064656661756C742061707073
:105330005F6F6E5F636F6E6E656374696F6E200D75
:105340000A00000010B5034CA079FFF79BF900207C
:10535000207010BDA191FC07B0B504460E4D002091
:10536000A8700EA1224600F0B5FF0020442C05D104
:1053700019A100F03FFBFFF7F1FEB0BD0EA12246E0
:1053800000F0A8FF6878002800D0B0BD6420114963
:10539000FFF7B4FC6870B0BDA191FC076164765F53
:1053A000636F6D706C657465207374617475733AA6
:1053B0002025640D0A00000053746F7070696E67D9
:1053C000206164762C207374617475733D25640DBF
:1053D0000A0000001D52FC07526573746172746903
:1053E0006E67206164762E2E2E0D0A0010B5074CD4
:1053F0002078002803D0FFF7CFFC00202070002089
:1054000003A100F0F7FAFFF7A9FE10BDA191FC0778
:10541000446973636F6E6E656374656421205265C1
:105420007374617274696E67206164766572746901
:1054300073696E672E2E2E0D0A000000F8B5044623
:105440000079617909020A18E0780090A378E5797B
:10545000A679277860780F49CA800002C019488071
:1054600030042A061018000C08811804009A12064D
:105470001018000C8880084D284614300B2259F76C
:105480003BFE18202871002004A1224600F022FFD4
:10549000F8BDC046F878FC07A191FC075365726916
:1054A000616C20757064617465643A20252E3873D0
:1054B0000D0A000010B5002007A100F09BFA0B4C6C
:1054C000E078002806D164200949FFF717FC012184
:1054D000E1706070002010BD424C4520706F776510
:1054E000726564206F6E210D0A000000A191FC0717
:1054F0001D52FC0710B5002007A100F07BFA0C4CF0
:10550000E078002806D164200A49FFF7F7FB012163
:10551000E1706070002010BD53797374656D207068
:105520006F7765726564206F6E210D0A00000000C0
:10553000A191FC071D52FC0700207047B0B50C4636
:105540001049884212D0104988420AD00F49884237
:1055500016D16088022813D10C482146FFF75CFD64
:10556000B0BD09482146FFF77DFDB0BD08480225C2
:1055700019462B4657F73EFAA188018057F755FA8E
:10558000B0BDC0460D0C00000DFD00000AFD00007E
:105590000E0C0000FEB50B4605461E4C2078532825
:1055A000029204D01E4600F037F8029A33461820C3
:1055B00068432418676AA66A1834BE4216D9606820
:1055C000A2688119951B0298854200D30546019374
:1055D00018462A4659F790FDAE19A068864200D1B8
:1055E0000026029A521B019B5B1900E00025BF1B9D
:1055F000974200D31746002F07D0606881191846DC
:105600003A4659F779FDBE197D19002D00D0266163
:105610002846FEBD887EFC071248012101614161D8
:10562000114A826111494B1C1131C1614021016253
:10563000002181624162C16202634363102282637E
:105640000164C163016041608160C1604164084AD6
:105650000F32102904D013784354521E491CF8E726
:105660007047C046887EFC076478FC072C7EFC07E8
:105670002873FC07FEB50B4605461E4C20785328C0
:10568000029204D01E46FFF7C7FF029A3346182045
:1056900068432418E76B266C3034BE4216D9606824
:1056A000A2688119951B0298854200D30546019393
:1056B00018462A4659F720FDAE19A068864200D147
:1056C0000026029A521B019B5B1900E00025BF1BBC
:1056D000974200D31746002F07D0606881191846FB
:1056E0003A4659F709FDBE197D19002D00D02661F3
:1056F0002846FEBD887EFC0710B50B46EFF31084EC
:10570000012181F310881946FFF744FF84F31088C4
:1057100010BD10B50B46EFF31084012181F3108802
:105720001946FFF7A7FF84F3108810BDF8B514469B
:105730000D46182141431D484718786AB96A183741
:10574000884202D1B968491E07E03A69C1433B6902
:105750005918904201D3BA6889188C420BD9611A42
:105760003A6989183961B9683A698A4204D33A6951
:10577000521A3A61F8E7B9680E1A79680818B44203
:105780000CD32946324659F7B7FC0020F860A41B19
:10579000AD19B9684E1E002CEFD1F8BD294622463E
:1057A00059F7AAFCF8680019F860F8BD887EFC0774
:1057B000F8B5144618224243154887187D6AF869DF
:1057C0004019BB6A1837AB4204D9EA439A18A2427F
:1057D00008D309E0BA68561B721EA24204D2D2183E
:1057E000A24208D20020F8BD224659F785FC2C19A8
:1057F000FC600120F8BD32460D4659F77DFCA41B24
:10580000F6D0A9197868224659F776FCF0E7C04629
:10581000887EFC07F8B514460D461821414316480A
:105820004618706C303602281DD001280ED0002793
:1058300000281ED1304600F021F8A04219D330468E
:105840002946224600F025F8274612E0304600F0AF
:1058500015F80746A04200D32746304629463A4667
:1058600000F017F805E030462946224600F02CF8F3
:1058700007463846F8BDC046887EFC07C268016905
:10588000914201D9D04302E0D243891880680818B8
:105890007047F8B5154604464068A268E668801966
:1058A000971BBD4204D22A4659F726FC751909E018
:1058B0000E463A4659F720FCF119ED1B60682A465E
:1058C00059F71AFCE560F8BDFEB516460D46C768E7
:1058D0000021019002910269F943BA4202D9541899
:1058E000816802E05218816854184268C91B8C42D2
:1058F00000D30C46B44200D33446D0192946224680
:1059000059F7FAFBE719019881688F4200D1002707
:105910000299C760361B2D196118002EDAD108468E
:10592000FEBDC046F8B514460D4618214143164841
:105930004618F06A183602281DD001280ED000271C
:1059400000281ED13046FFF799FFA04219D33046F8
:1059500029462246FFF79DFF274612E03046FFF713
:105960008DFF0746A04200D32746304629463A46D7
:10597000FFF78FFF05E0304629462246FFF7A4FFD8
:1059800007463846F8BDC046887EFC07F8B5144681
:105990000D46064609480078532801D0FFF73CFE23
:1059A000EFF31087012181F3108830462946224603
:1059B000FFF730FF87F31088F8BDC046887EFC07EC
:1059C000F8B514460D46064609480078532801D01C
:1059D000FFF722FEEFF31087012181F31088304694
:1059E00029462246FFF79EFF87F31088F8BDC04680
:1059F000887EFC07B0B50C460546084601F0B2FBB0
:105A0000024628462146FFF7DBFFB0BDB0B518229D
:105A1000424309488218146A536A5D1C0020A5425B
:105A2000044600D02C46956AAC4204D01832506827
:105A3000C154D4600120B0BD887EFC0770B50C460F
:105A40000546104E3078532801D0FFF7E5FD1820A9
:105A500068433318EFF31082012181F310881D6A27
:105A6000596A4E1C0020AE42054600D035469E6A5B
:105A7000B54204D0183358684454DD60012082F3E5
:105A8000108870BD887EFC0770B50C460546134E25
:105A90003078532801D0FFF7BFFD18206843301835
:105AA000EFF31082012181F31088056A416A4B1CD3
:105AB000AB4200D10023C56A1830022D02D105691E
:105AC000AB42FCD00569AB4201D1002003E0456840
:105AD0006C54C360012082F3108870BD887EFC077F
:105AE000BCB5002401AD012220462946FFF711FE76
:105AF000012801D0E043BCBD2878BCBD80B5FFF7CC
:105B0000EFFF0028FBD480BD10B5064C2078532849
:105B100001D0FFF781FDE06B216C081A411E88411E
:105B200010BDC046887EFC0718214143024840183A
:105B3000016CC06B401A7047887EFC0718214143F6
